:020000040800F2
:10000000000002203102000881020008810200087D
:10001000810200088102000881020008000000003F
:100020000000000000000000000000008102000845
:10003000810200080000000081020008810200081F
:100040008102000881020008810200088102000884
:100050008102000881020008810200088102000874
:100060008102000881020008810200088102000864
:100070008102000881020008810200088102000854
:1000800081020008810200088102000800000000CF
:1000900000000000000000000000000081020008D5
:1000A0008102000881020008810200088102000824
:1000B0008102000881020008810200088102000814
:1000C0008102000881020008810200088102000804
:1000D000810200088102000881020008000000007F
:1000E000810200088102000881020008000000006F
:1000F0000000000000000000000000008102000875
:10010000000000008102000881020008810200084E
:1001100000000000000000000000000000000000DF
:1001200081020008810200088102000881020008A3
:100130008102000800000000000000000000000034
:100140000000000000000000000000008102000824
:100150008102000881020008810200088102000873
:100160008102000881020008000000000000000079
:10017000000000000000000000000000000000007F
:10018000000000000000000000000000000000006F
:08019000810200088102000851
:1001980010B5054C237833B9044B13B10448AFF3B9
:1001A80000800123237010BD000000200000000023
:1001B800CC02000808B5034B1BB103490348AFF351
:1001C800008008BD0000000004000020CC020008E8
:1001D80080B485B000AF114BFB60114BBB60114B75
:1001E8007B60FB6800221A60FB681B6843F004020E
:1001F800FB681A60BB6800221A60BB681B6843F082
:100208008062BB681A607B6800221A607B681B6882
:1002180043F400527B681A60FEE700BF30380240A2
:1002280000080240140802400D488546AFF30080DC
:100238000C480D490D4A002302E0D458C450043339
:10024800C4188C42F9D30A4A0A4C002301E013600F
:100258000432A242FBD300F011F8FFF7B9FFFEE722
:10026800000002200000002000000020EC0200082E
:10027800000000201C000020FEE7000070B50D4DB6
:100288000D4C641BA4100026A64209D10B4D0C4C42
:1002980000F018F8641BA4100026A64205D170BD12
:1002A80055F8043B98470136EEE755F8043B984764
:1002B8000136F2E7E4020008E4020008E40200085C
:1002C800E8020008F8B500BFF8BC08BC9E467047B5
:0C02D800F8B500BFF8BC08BC9E4670479B
:0402E400BD01000850
:0402E8009901000870
:0400000508000231BC
:00000001FF
